:1000000030C500004BC5000049C500000C942326F4
:1000100045C5000043C5000041C500003FC50000C4
:100020003DC500003BC500000C941B100C944C1403
:100030000C944A2033C5000031C500002FC50000D4
:100040002DC500002BC5000029C5000027C50000F4
:1000500025C500000C94021121C500001FC5000039
:100060001DC500001BC5000019C5000017C5000014
:1000700015C5000013C5000011C500000FC5000024
:100080000DC500000BC5000009C5000007C5000034
:1000900005C5000003C5000001C50000FFC4000045
:1000A000FDC40000FBC40000F9C4000035001E00C0
:1000B0001F00200021002200290014001A0008005F
:1000C000150017002B0004001600070009000A00A5
:1000D000E1001D001B00060019000500E300E2001E
:1000E000E000777C2800A8003500270026002500C6
:1000F000240023002A00130012000C0018001C002A
:10010000340033000F000E000D000B00E500380036
:100110003700360010001100E700E600E400787CAC
:100120002C00000035001E001F00200021002200CE
:10013000290014001A00090013000A002B00040013
:100140001500160017000700E1001D001B00060047
:1001500019000500E300E200E000777C2800A80019
:100160003500270026002500240023002A00330044
:100170001C0018000F000D00340012000C000800D5
:1001800011000B00E50038003700360010000E00AB
:10019000E700E600E400787C2C00000001003A0053
:1001A0003B003C003D003E0035001E001F002000CB
:1001B0002100220001001E021F0220022102220251
:1001C00001002E002D002E022F023002010001003E
:1001D0000100010001000100440043004200410011
:1001E00040003F0045002700260025002400230092
:1001F00031022702260225022402230201003100D7
:100200003302330030002F00010001000100010023
:1002100001000100010001000100010001000100D6
:100220000100490046006500000000000100E200F6
:10023000E000E1000000390001001D011B01060182
:10024000190100000100010001000100010001008E
:100250000100010001000100010001002A002A0143
:100260004F01520050014B002A004C004F0051003A
:1002700050004E00010000004D0000004A00000048
:100280000100010001000100010001000000000068
:100290000000000000000000007C0000E052E1527D
:1002A0001D700000000000001D7000000000000034
:1002B000000000000000000000000000010001003C
:1002C000010001000100000000000000000000002B
:1002D000000000000000000000000000000000001E
:1002E00000000000A900A800AA0000000000000013
:1002F000AB00AE00AC0000000100010001000100F5
:100300000100000000DA0281FFD9F1DB20A4A62E53
:10031000AF00A0C0D30000A1C8D30000AED580A814
:100320001F408D14200007087F0807003E5B4F5BCD
:100330003E003E6B4F6B3E001C3E7C3E1C00183C5A
:100340007E3C18001C577D571C001C5E7F5E1C0005
:1003500000183C180000FFE7C3E7FF00001824184E
:100360000000FFE7DBE7FF0030483A060E002629D1
:1003700079292600407F05050700407F05253F00BD
:100380005A3CE73C5A007F3E1C1C0800081C1C3EDF
:100390007F0014227F2214005F5F005F5F00060968
:1003A0007F017F00006689956A0060606060600080
:1003B00094A2FFA2940008047E04080010207E206E
:1003C000100008082A1C0800081C2A0808001E1033
:1003D000101010000C1E0C1E0C0030383E3830007F
:1003E000060E3E0E060000000000000000005F0048
:1003F0000000000700070000147F147F1400242A67
:100400007F2A1200231308646200364956205000E8
:10041000000807030000001C224100000041221CCC
:1004200000002A1C7F1C2A0008083E0808000080E3
:100430007030000008080808080000006060000034
:100440002010080402003E5149453E0000427F4012
:1004500000007249494946002141494D33001814B2
:10046000127F10002745454539003C4A4949310073
:1004700041211109070036494949360046494929B1
:100480001E000000140000000040340000000008BE
:100490001422410014141414140000412214080002
:1004A0000201590906003E415D594E007C121112AD
:1004B0007C007F49494936003E41414122007F414D
:1004C00041413E007F49494941007F090909010036
:1004D0003E41415173007F0808087F0000417F4181
:1004E00000002040413F01007F08142241007F406E
:1004F000404040007F021C027F007F0408107F0004
:100500003E4141413E007F09090906003E4151211B
:100510005E007F0919294600264949493200030136
:100520007F0103003F4040403F001F2040201F004C
:100530003F4038403F00631408146300030478040C
:1005400003006159494D4300007F414141000204CD
:1005500008102000004141417F0004020102040014
:1005600040404040400000030708000020545478F9
:1005700040007F284444380038444444280038442C
:1005800044287F0038545454180000087E090200A3
:1005900018A4A49C78007F080404780000447D40DF
:1005A00000002040403D00007F1028440000004132
:1005B0007F4000007C04780478007C080404780004
:1005C000384444443800FC18242418001824241803
:1005D000FC007C080404080048545454240004041B
:1005E0003F4424003C4040207C001C2040201C0054
:1005F0003C4030403C004428102844004C909090EF
:100600007C004464544C4400000836410000000063
:1006100077000000004136080000020102040200D9
:100620003C2623263C00000000000000404040F033
:10063000F8F8FF38FFF8F83FF8F8FF38FFF8F8F05F
:1006400040404000000000000080C0C0C0800000AA
:10065000C0C08000000080C0C000C0C0000080C0DA
:10066000C00000000000C0C0C0C0C000C0C000008A
:10067000000000000000000000000000000000007A
:10068000000000000000000000000000000000006A
:10069000000000000000000000000000000000005A
:1006A0000000000000C0F0F8FC3E1E060100000043
:1006B0007F4141417F007F4141417F000080C0E098
:1006C0007E5B4F5BFEC00000C000DCD7DEDEDED705
:1006D000DC00C0000000000000000000000000007E
:1006E000000000000000000000000000494949FF30
:1006F000FFFFFFE0DFBFBF00BFBFDFE0FFFFFFFF87
:1007000049494900000000001F3F6060E0BF1F0032
:100710007F7F071E381E077F7F007F7F0E1F3B7184
:100720006000000000007F7F0C0C0C007E7E007FCC
:100730007E0303007F7E03037E7E03037F7E000F24
:100740003E703C063C703E0F00327B49493F7E00C4
:100750007F7E0303001E3F69696F260000000000D2
:100760000000000000030F1F3F3C78706000000095
:100770007F4141417F007F4141417F00307B7F7855
:1007800030202030787F3B0003000F7F0F0F0F7F5A
:100790000F00030000000000000000000000000047
:1007A000000000000000000000000000010101073F
:1007B0000F0F7F0F7F0F0F7E0F0F7F0F7F0F0F0722
:1007C0000101010000000000000000000001010024
:1007D0000000000000000000000000000000000019
:1007E0000000000000000000000000000000000009
:1007F00000000000000000000000000000000000F9
:1008000000000000000000000000000000000000E8
:1008100000000000000000000000000000000000D8
:1008200000000000000000000000000000000000C8
:1008300000000000000000000000000000000000B8
:1008400000000000000000000000000000000000A8
:100850000000000000000000000000000000000098
:1008600000000000000000AF00AE4350534C4B00AE
:100870000A0A00556E6465660041646A7573740007
:100880005261697365004C6F7765720042617365F0
:100890000A004C41594552000A0A004D6F640A0093
:1008A000436C6D6B0051777274000A0A008081827C
:1008B000838485868788898A8B8C8D8E8F90919290
:1008C0009394A0A1A2A3A4A5A6A7A8A9AAABACADE6
:1008D000AEAFB0B1B2B3B4C0C1C2C3C4C5C6C7C85D
:1008E000C9CACBCCCDCECFD0D1D2D3D4000501094B
:1008F00002A10185020901A10005091901290815B4
:10090000002501950875018102050109300931159D
:1009100081257F95027508810609381581257F9507
:100920000175088106050C0A38021581257F95019D
:1009300075088106C0C005010980A1018503190160
:100940002AB700150126B700950175108100C00572
:100950000C0901A101850419012AA002150126A094
:1009600002950175108100C005010906A1018506E7
:10097000050719E029E71500250195087501810291
:100980000507190029EF1500250195F07501810271
:100990000508190129059505750191029501750351
:1009A0009101C005010906A101050719E029E71514
:1009B00000250195087501810295017508810105E1
:1009C00007190029FF150026FF009506750881000C
:1009D00005081901290515002501950575019102E4
:1009E000950175039101C009023B00020100A0FAC4
:1009F0000904000001030101000921110100012285
:100A000044000705810308000109040100010300F7
:100A1000000009211101000122B600070582032010
:100A20000001120100020000000832FC87020100F0
:100A3000010200010C0353006F0066006C006500AA
:100A400000001A034A006F00730065006600410051
:100A5000640061006D00630069006B000000040326
:100A6000090411241FBECFEFDAE0DEBFCDBF11E0D5
:100A7000A0E0B1E0ECE7F0E502C005900D92AE3ADF
:100A8000B107D9F725E0AEEAB1E001C01D92A43468
:100A9000B207E1F70E9471200C94FD27B1CA482FDC
:100AA000209140059091070557E0291302C080E08E
:100AB000089530E0529FF001539FF00D1124E85F3C
:100AC000FA4F8181681306C08081481303C0858175
:100AD0008111EECF2F5F3F4F2770E7CFE8EDF0E0B9
:100AE00080818E7F80831092E2001092DA00109253
:100AF000E100A0EEB0E08C9181608C9380818F77D3
:100B0000808319BCA7EDB0E08C918E7F8C9380819F
:100B10008F7E80831092F20408952091E40030913A
:100B2000E50095E6A9012091EC00822F817020FF5D
:100B300006C08091E80080FF06C080E00895209103
:100B4000E80022FD1AC08091FD04882389F08530D9
:100B500089F08091EB0085FD0FC02091E400309179
:100B6000E50042175307F9F29150E1F684E0089549
:100B700082E0089583E0089581E008958091FF0464
:100B800087FF13C08091E80082FF06C08091E800D3
:100B90008B778093E80004C08091FD048111F2CF2F
:100BA00008958091FD048823D9F38091E80080FFA7
:100BB000F8CF8091E8008E77ECCF982F9093E900E2
:100BC000242F762F50E0891731F07091EC0020919E
:100BD000ED005091F00021FD07C09F5F973071F745
:100BE0008093E90081E008953091EB003E7F3093DF
:100BF000EB003091ED003D7F3093ED003091EB0044
:100C000031603093EB007093EC002093ED00509333
:100C1000F0002091EE0027FDE0CF80E00895B0E0E5
:100C2000A0E0E5E1F6E00C945127C8EDD0E0888122
:100C30008F7E8883E7EDF0E080818160808384E0AF
:100C400082BF81E08093F20488818E7F888302EEE8
:100C500010E0F80110821092DA0081EEC82ED12C3B
:100C6000F601108288818F778883888180688883E5
:100C700088818F7D888319BC1092FD041092FE0438
:100C80001092FC041092FB0490EEE92EF12CF70177
:100C900080818B7F808388818160888342E060E0EF
:100CA00080E08BDFF60180818E7F8083F801808178
:100CB00081608083808188608083F70180818E7F5E
:100CC0008083888180618883CDB7DEB7E8E00C94AB
:100CD0006D27FC0180910505909106058617970701
:100CE000A0F06115710529F49091E8009E7790932A
:100CF000E80090E06115710551F4911108C08091F0
:100D0000E80082FF34C080E00895BC01F2CF8091FA
:100D1000FD048823C1F18530C1F18091E80083FD95
:100D200030C08091E80082FDEACF8091E80080FF2A
:100D3000E1CF8091F3002091F200382F6115710509
:100D400019F02830310558F091E02830310509F0CC
:100D500090E02091E8002E772093E800CBCF81919E
:100D60008093F100615071092F5F3F4FE7CF809171
:100D7000FD04882341F0853041F08091E80083FF35
:100D8000BECF81E0089582E0089583E0089587E76B
:100D900097E7909301088093000888E19AE00FB6E6
:100DA000F894A895809360000FBE90936000FFCFE9
:100DB0002FB7F8946091EE047091EF048091F004E5
:100DC0009091F1042FBF089580914D010895909165
:100DD0004E019130D1F49091EB0497FF16C0E82FAB
:100DE000E695E695E695EE31E0F4F0E0E854FE4F46
:100DF000282F277081E090E001C0880F2A95EAF73C
:100E000080959281892382830895E2EBF1E09191AC
:100E1000891303C0DF0111971C9291E0E83BF907A9
:100E2000B1F7089590914E019130C1F49091EB0487
:100E300097FF14C0E82FE695E695E695EE31F8F4B5
:100E4000F0E0E854FE4F877021E030E001C0220F4F
:100E50008A95EAF78281822B82830895A2EBB1E022
:100E6000EFEF90E02D91821751F0EF3F19F421112F
:100E700001C0E92F9F5F9630A9F7EF3F09F408956D
:100E80000E2E000CFF0BE055FE4FE6CFA3E0B0E0C6
:100E9000ECE4F7E00C9457272091E9043091EA0440
:100EA00028173907B1F09093EA048093E904E091A0
:100EB000E704F091E804309761F00084F185E02DBB
:100EC000309739F024E029839B838A83CE010196F1
:100ED00009952396E2E00C947327A3E0B0E0E3E7E2
:100EE000F7E00C9457272091E5043091E604281789
:100EF0003907B1F09093E6048093E504E091E704AC
:100F0000F091E804309761F00084F185E02D30978E
:100F100039F023E029839B838A83CE0101960995CA
:100F20002396E2E00C9473278091E304882369F010
:100F3000E091E704F091E804309739F00190F081F6
:100F4000E02D309711F00995089580E00895809183
:100F5000D80480FD16C081FD16C082FD16C08091A8
:100F6000D7048823A1F0883280F428E0829FC00152
:100F7000112468E270E00E948A27862F672B39F0DF
:100F8000089582E0089584E0089588E0089581E05E
:100F900008958091D80480FD14C081FD14C082FDA5
:100FA00016C08091D604882381F08E3180F420E52C
:100FB000829FC00111246EE170E00E948A27862F73
:100FC000089584E1089588E2089588E0089580E511
:100FD0000895282F35EB2303C001112497FF04C087
:100FE00080589109892F089580589F4FFBCFFC01AD
:100FF000680F791F8FEF91E32191822728E030E07D
:1010000087FF09C0880F892721503109C9F7E617E2
:10101000F70791F70895880FF7CF90E06623A1F0C6
:10102000855B9E4FFC0120812F3F89F0E22FE295E6
:10103000EF70F0E080A190E02F7002C09595879549
:101040002A95E2F781700895865B9E4FEBCF80E092
:10105000089590E06623E9F0855B9E4FFC01808156
:101060008F3FB1F0E82FE295EF70F0E041A18F7073
:1010700021E030E0B90102C0660F771F8A95E2F7E0
:10108000CB01962F9095942391A392A1892B82A3B3
:101090000895865B9E4FE2CF9091D004E92FF0E057
:1010A0004091D1049F012F5F3F4F23703327421798
:1010B0001306A9F0EE52FB4F282F2F7780818078FE
:1010C000822B60FB87F980839F5F93709093D0049D
:1010D0008091CE048F5F8093CE0481E0089580E0FC
:1010E000089580E0089581E0809395020895F89432
:1010F000E82FE295EF70F0E031A1282F2F7081E00A
:1011000090E001C0880F2A95EAF7982F90959323D5
:1011100091A392A1892B82A3789408950F931F9392
:101120008091E304882321F043DE1F910F910895FD
:101130003FDE009168021091690220916A023091AD
:101140006B02600F711F821F931FEFCF9091EB0412
:1011500092FF10C041E0282F2471243009F040E0B4
:1011600031E0282F2871283009F030E0431711F0C2
:101170002CE0822793FF10C041E0282F24712431F6
:1011800009F040E031E0282F2871283109F030E0E3
:10119000431711F02CE082273091EC0430FF10C08F
:1011A00051E0282F2171213009F050E041E0282F33
:1011B0002871283009F040E0541711F029E0822707
:1011C00031FF10C041E0282F2171213109F040E0AA
:1011D00031E0282F2871283109F030E0431711F051
:1011E00029E0822794FD877E089582389105B9F120
:1011F000B0F48133910509F47DC048F4893291053A
:1012000009F46DC08A32910509F47BC008958533D5
:10121000910509F45FC08933910509F10895833E72
:101220009105D9F138F4803E910529F1823E91056E
:1012300079F10895863E9105D9F1873E910509F42B
:101240003EC0843E910541F52091EC0421FF24C06D
:101250008091EB0484FD19C087EE90E00895209101
:10126000EB04237009F05AC02091EC0423FF14C052
:1012700089E290E008952091EB0420FD38C0309180
:10128000EC0430FF09C024FF43C090E080E00895E3
:101290002091EB0422FDF7CF08952091EB0422FD6D
:1012A0003AC03091EC0430FD39C024FFF5CFEDCFCA
:1012B0002091EB0423FFF0CF24FDE7CFCDCF209189
:1012C000EB0423FD2EC03091EC0431FFEECF84EE11
:1012D00090E008952091EB0425FFDECFC9CF209147
:1012E000EB0425FD21C02091EC0423FFD5CF89E339
:1012F00090E0D2CF2091EB0426FFCECF8AE290E09F
:1013000008952091EB0426FFC7CF81E390E0089574
:1013100083EE90E0089582EE90E0089580EE90E0F4
:10132000089586EE90E0089585E390E00895972F64
:101330007A30B8F46630A8F48530B0F470E026E076
:10134000929F600D711D1124FB019CE3899FE00DAC
:10135000F11D1124EE0FFF1FE455FF4F859194916D
:10136000089580E090E0089581E0FCCF1F93CF9333
:10137000DF933BDFEC01C11580E5D807F0F5C1151F
:1013800080E4D80708F09AC0C03ED10520F5CD3CD6
:10139000D10508F082C0C83AD10578F4C53AD10524
:1013A00008F073C0C130D10519F1209709F1C4309C
:1013B000D105F0F4D0E0C0E01BC0C33CD105D0F7AC
:1013C000C85AD0E0CC0FDD1FCD5ADE4F0990D8812E
:1013D000C02DD4640DC0C11580E2D80708F0CDC07F
:1013E000C11581E0D80708F05AC0C83ED10510F7F2
:1013F000CE01DF91CF911F910895C03682E5D807C5
:1014000018F5C03482E5D80708F068C0C03282E51C
:10141000D80708F05CC0C11582E5D80708F493C06E
:101420002C2F2695269580E2289F900111248C2F41
:101430008370C1E0D0E002C0CC0FDD1F8A95E2F7D7
:10144000C22BD32BDD68D4CFC03A82E5D80760F435
:10145000C03882E5D80708F456C0CF71D0E0DC2F41
:10146000CC27C46FD06AC4CFC03C82E5D80708F44B
:101470005FC0C03E82E5D80708F09CCFDC2FCC27A8
:10148000CC27DF71C06FD06AB3CFC55AD0E0C05B44
:10149000DE4FC881D0E0D064ABCFD065A9CF8D2F0F
:1014A00055DE182FCE019927A0DEC12FD0E0DC2F0A
:1014B000CC27CC27DF71C82BD92B9ACFCE01992707
:1014C00094DECC27DF70C82BD92BD06A91CFCF7197
:1014D000D0E0DC2FCC27C16FD06A8ACF2C2F269585
:1014E0002695277080E2289F900111248C2F83700D
:1014F000C1E0D0E002C0CC0FDD1F8A95E2F7C22B1D
:10150000D32BDC6875CF2C2F26952695277080E28B
:10151000289F900111248C2F8370C1E0D0E002C07D
:10152000CC0FDD1F8A95E2F7C22BD32BDA6860CF90
:101530008C2F8F710BDEC82FD0E0DC2FCC27CC276F
:10154000DF71D06255CF8C2F8F7100DE55E0D695BC
:10155000C7955A95E1F7CF70D0E0DC2FCC27282F24
:1015600030E084FF06C044E0220F331F4A95E1F7C4
:101570003327C22BD32BD0693BCF8D2F8F71E6DD64
:10158000182FCE01992731DEC12FD0E0DC2FCC27D8
:10159000CC27DF71C82BD92BD4CF809590912C020A
:1015A000982390932C02089580912C02909103022D
:1015B000892B90910202992391F0892B90914E01F1
:1015C000913071F49091EB0497FF0AC09EE12AEBF1
:1015D00031E040E0915040F4411110920202089530
:1015E00096E022EB31E0F5CFF90151919F015523AF
:1015F00089F34F5FEFCF80914005909107059813D5
:1016000001C008958F5F8770FACFB0E0A0E0EBE0F3
:10161000FBE00C9450277C010091A0021091A102E4
:101620008091780290917902082B192BCFE0D0E0BD
:10163000CC24C394D12CBC2EC6010C2E02C0880F22
:10164000991F0A94E2F780239123892B49F421976B
:1016500090F7B12C8B2DCDB7DEB7E9E00C946C2759
:10166000B7018C2F64DE82DE019789F3F3CFCF932D
:10167000DF93EC01CADFBE015ADE78DEDF91CF9145
:1016800008959A3078F5863068F5E82FF0E086E026
:10169000989FE00DF11D11249E2F977083E0F69521
:1016A000E7958A95E1F7EE0FFF1FEE0FFF1FE65259
:1016B000FE4F50E040E080E0219130E0092E02C072
:1016C000369527950A94E2F721703327042E01C03E
:1016D000220F0A94EAF7822B4F5F5F4F4430510587
:1016E00059F7089580E008959A3098F5863088F586
:1016F000E82FF0E086E0989FE00DF11D11248E2F79
:10170000877041E001C0440F8A95EAF783E0F695BF
:10171000E7958A95E1F7EE0FFF1FEE0FFF1FE652E8
:10172000FE4F30E020E070E05191DF011197CB01D6
:10173000022E02C0969587950A94E2F781708195F2
:101740008527842385278C932F5F3F4F24303105D5
:1017500059F708959093A1028093A002089521E083
:1017600030E002C0220F331F8A95E2F720953095B2
:101770008091A0029091A10282239323EBCF9091BC
:1017800001028095892380930102282F277061F43C
:10179000891751F09091EC0492FF06C086958695CA
:1017A0008695DDDF10920102089521E030E002C04D
:1017B000220F331F8A95E2F78091A0029091A10237
:1017C000822B932BC7CF9093790280937802089550
:1017D000FC0124812223B9F08081918148DF929518
:1017E0009F70963091F058F4925F9F70923058F449
:1017F000803F19F030F4883E30F481E008959A5F1C
:10180000F4CF843FD1F380E00895883EB0F3813F68
:10181000D1F7F3CF292F332740E02115310511F0FF
:10182000C90148E09C0164E0369527956A95E1F787
:101830002115310511F04C5FC9019C0136952795A2
:10184000369527952115310511F04E5FC901969502
:101850008795892B09F04F5F842F0895A6E0B0E0AB
:10186000E4E3FCE00C94562726E0FC01DE0111962F
:1018700001900D922A95E1F7FC01258189819A81D9
:10188000222381F0662371F0C0DE182F682F898132
:101890009A812ADF69817A81812F49DD2696E3E0EA
:1018A0000C947227EEDE182FF5CF0F931F93CF9372
:1018B000DF938B01EA019091FD04943059F58093F8
:1018C000E9008FEF9091E800815095FD06C095EDFD
:1018D0009A95F1F700008111F5CF8091E80085FF1E
:1018E00019C01BD9811111C08091E80085FD06C087
:1018F0008091E8008E778093E800F3CFF801819122
:101900008F018093F100219779F78091E8008E771D
:101910008093E800DF91CF911F910F91089543E0EC
:1019200050E0BC0182E0C1CF46E050E0BC0182E063
:10193000BCCF40E250E0BC0182E0B7CFCF93DF9351
:10194000EC0148E050E0BC0181E0AFDF88E0FE013F
:10195000A3EFB4E001900D928A95E1F7DF91CF916A
:101960000895B0E0A0E0E7EBFCE00C944F277C0189
:101970005B016A018091670201E010E08A3010F497
:101980000AE010E0C1E0D0E0B501C701F601099519
:10199000811104C021960C171D072CF4CDB7DEB7BA
:1019A000EAE00C946B27CC9F9001CD9F300D300D59
:1019B000112490E080E045E34A95F1F7000001969C
:1019C00082179307C1F7E0CF80914E01813061F516
:1019D0008091EB0487FF28C0E7DD8093B90140E2E6
:1019E00050E064E072E088EB91E00E94AC27892B24
:1019F000D1F080E2E8EBF1E0A4E0B2E001900D92DA
:101A00008A95E1F7E091E704F091E804309759F006
:101A10000480F581E02D309731F086E08093B801A5
:101A200088EB91E009950895BFDD8093B00148E00F
:101A300050E064E272E080EB91E00E94AC27892BD9
:101A400091F388E0E0EBF1E0A4E2B2E001900D92C6
:101A50008A95E1F7E091E704F091E804309719F3F3
:101A60000280F381E02D3097F1F280EB91E0DACF44
:101A7000882311F092DDA8CF0895882331F090914A
:101A80002C02982B90932C029FCF08951F93CF93F5
:101A9000DF93162F8A3031F481E099D0DF91CF9116
:101AA0001F9108958D3011F480E0F7CFC0919D0211
:101AB000D0919E0296E0FE01A7E9B2E001900D925E
:101AC0009A95E1F7803E90F186E0FE0111928A95A9
:101AD000E9F7C0919D02D0919E02111133C046E0FA
:101AE00050E0BE0187E992E00E94AC279E01225C93
:101AF0003240892B91F52A5F3F4F40919F02642F1E
:101B000070E0C9010E943327481B463010F4240FAF
:101B1000311D211572E0370710F030E020E02E5320
:101B20003D4F30939E0220939D02B8CFF6E08F9FE9
:101B3000B00111246A5D7C4F46E050E0CE010E9466
:101B4000A327C7CF9E012A5F3F4FFE012E173F07F5
:101B500031F2808180958193F9CFC90145E0969556
:101B600087954A95E1F741E050E0BA0102C0660F5F
:101B7000771F8A95E2F7CB016091C4047091C50488
:101B8000862B972BB9016B5F7F4FE5E076956795C4
:101B9000EA95E1F702C0440F551F6A95E2F7842BDE
:101BA000952B9093C5048093C404A5CF1F93CF9326
:101BB000DF93EC01162FFE018491811104C0DF91A7
:101BC000CF911F910895612F61DF2196F4CFCF93BC
:101BD000382FE0919D02F0919E02E25CF24020914C
:101BE0009F02622F70E0CF010E943327281B822FB3
:101BF000332361F066E00E947E27C82FC15010F4A5
:101C0000CF91089560E080E241DFF8CF9F01280F77
:101C1000311D2115324018F080E0F0E0E0E08E0F39
:101C20009F2F911D8E539D4F90939E0280939D02F6
:101C3000E7CFBCDF81E0CBCFAB0124E630E0BC01D5
:101C400088E70E94052521E0892B09F020E0822FFA
:101C500008958091CA049091CD04911103C091E040
:101C600089270895882361F062E070E088E698E0B3
:101C7000E3DF811103C08091CA0408951092CA0461
:101C80008091CA04ECCFCF93C091CA048091CD0457
:101C90008823C1F08DD8605A75418F4F9F4F609354
:101CA000C6047093C7048093C8049093C904C111FB
:101CB00007C062E070E086E698E0BEDF811105C0F3
:101CC000C091CA048C2FCF91089581E08093CA04FB
:101CD000F7CF9091EC0492FB222720F9281771F09E
:101CE00080FB92F99093EC046091EB047091EC040A
:101CF00084E090E00E94E92782E041CD0895CF92F0
:101D0000DF92EF92FF921F93CF93DF9300D000D02A
:101D1000CDB7DEB7C0906302D0906402E090650258
:101D2000F090660245D86C197D098E099F0911E073
:101D3000643671058105910560F1F0D96E5F7F4FC2
:101D40008F4F9F4F69837A838B839C83809131016E
:101D500090913201855B9D4F4091300150E04530BC
:101D6000510510F044E050E0BE016F5F7F4F0E94CC
:101D7000B92786E090E00E94C326182F882349F0F7
:101D800017D8609363027093640280936502909306
:101D90006602812F0F900F900F900F90DF91CF91DF
:101DA0001F91FF90EF90DF90CF900895B0E0A0E0FA
:101DB000ECEDFEE00C945127EC0145E050E061E5CC
:101DC00072E00E94AC278C01C0904202D090430286
:101DD000E0904402F09045020E94D8066C197D09FB
:101DE0008E099F09643671058105910518F4011566
:101DF000110541F18091110190911201855B9D4F78
:101E00004091100150E04630510510F045E050E09F
:101E1000BE010E94B92782E090E00E94C326C82F2D
:101E2000882351F00E94D8066093420270934302C7
:101E300080934402909345028C2FCDB7DEB7E8E043
:101E40000C946D27C1E0F8CFA1E0B0E0EAE2FFE03A
:101E50000C944927D62E4A015901682E880F77081D
:101E6000C3010E94C326C82E882309F468C0C30199
:101E700033E0880F991F3A95E1F7FC01E050FF4FDE
:101E8000438150E04115510511F041E050E0805090
:101E90009F4FFC0164817581655B7D4FCE0101968A
:101EA0000E94B927F40140805180628073800E94B3
:101EB000D806641975098609970964367105810584
:101EC000910530F4B701C80192D899818917B9F109
:101ED0006D2C0D2C000C7708C3010E94C326C82E60
:101EE000811106C0C12C8C2D2196E0E10C94652750
:101EF000C30123E0880F991F2A95E1F7FC01E05008
:101F0000FF4F438150E0E416F50608F4A701805026
:101F10009F4FFC0164817581655B7D4FC5010E9407
:101F2000B927B701C80163D899818913DBCF0E9413
:101F3000D806F4016083718382839383D4CFA70191
:101F4000B801C5010E94B927CECFA8E0B0E0EBEA06
:101F5000FFE00C94532788E0E82EF12C07E512E00F
:101F60009E012F5F3F4F47E452E064E083E06CDF67
:101F7000082F882381F1909156028091460298178C
:101F800051F110E090915A02809159028917E9F0BD
:101F9000E92FF0E0E15BFD4F848587FB662760F960
:101FA0009F5F937090935A02909158029F5F909315
:101FB00058028F7771D8182F8111E4CF85E090E017
:101FC0000E94C326012F082302C01111F7CF809170
:101FD000560280934602802F2896E6E00C946F27E5
:101FE000A5E0B0E0E6EFFFE00C9451276B0185E03F
:101FF000E82EF12C0CE412E09E012F5F3F4F4EE3E0
:1020000052E061E080E020DF882349F095E0FE01A6
:102010003196A9E3B2E001900D929A95E1F795E02F
:10202000E9E3F2E0D60101900D929A95E1F7259649
:10203000E8E00C946D271F920F920FB60F921124B7
:102040002F933F934F935F936F937F938F939F93C0
:10205000AF93BF93EF93FF938091E10082FF09C09C
:102060008091E20082FF05C08091E1008B7F809328
:10207000E1008091DA0080FF24C08091D80080FFC9
:1020800020C08091DA008E7F8093DA008091D900A1
:1020900080FFAAC080E189BD82E189BD09B400FE4C
:1020A000FDCF81E08093FD048091F204811109C08D
:1020B0000E946E050E940F068091E200846080936A
:1020C000E2008091E10080FF1AC08091E20080FF71
:1020D00016C08091E2008E7F8093E2008091E20042
:1020E00080618093E2008091D80080628093D80064
:1020F00019BC85E08093FD0483E080934F018091BB
:10210000E10084FF30C08091E20084FF2CC080E1B8
:1021100089BD82E189BD99B5892F817090FFFBCF80
:102120009091D8009F7D9093D8009091E1009F7E80
:102130009093E1009091E2009F7E9093E200909155
:10214000E20091609093E2009091FE04992309F4DB
:1021500051C094E09093FD049091FD04943009F4F3
:1021600082E080934F018091E10083FF2CC0809139
:10217000E20083FF28C08091E100877F8093E10027
:1021800082E08093FD041092FE048091E1008E7F36
:102190008093E1008091E2008E7F8093E200809145
:1021A000E20080618093E20042E060E080E00E9413
:1021B000DD058091F00088608093F00081E08093DD
:1021C0004F0180934E01FF91EF91BF91AF919F918D
:1021D0008F917F916F915F914F913F912F910F90D0
:1021E0000FBE0F901F90189519BC1092FD0410920D
:1021F000F20467CF9091E30097FD02C0982FAACF19
:1022000093E0A8CF78941F921FB61F9211248F934A
:102210009F93AF93BF938091EE049091EF04A091B0
:10222000F004B091F1040196A11DB11D8093EE045C
:102230009093EF04A093F004B093F104BF91AF9199
:102240009F918F911F901FBE1F9018952FB7F894E4
:102250008091EE049091EF04A091F004B091F1040C
:102260002FBF0895CF93DF93EC01F0DF8C1B9D0B04
:10227000DF91CF910895EADF9C019091DF04809176
:10228000E004982B21F03093DC042093DB04909140
:10229000E1048091E204982B21F03093DA0420933A
:1022A000D904E091E704F091E804309759F00680F2
:1022B000F781E02D309731F082E08093DD048DEDE1
:1022C00094E00995089510922C0280914E0181307E
:1022D00021F58091EB0487FF20C0EAEBF1E08EE16D
:1022E000DF011D928A95E9F790E080E00E946D077A
:1022F00090E080E00E9446071092030265DB86E0D2
:10230000EDEDF4E0DF011D928A95E9F71092D60415
:102310001092D7041092D804AECFE2EBF1E086E041
:10232000DFCFAAE2B0E0E7E9F1E10C9456278FEFA6
:1023300094E02091F100FC012193CF01F5E087307A
:102340009F07B9F780910005833009F470C0B8F495
:10235000813009F447C0823009F4B4C08091E800AC
:1023600083FF88C28091FF04909100059A3008F0A5
:1023700081C2E92FF0E0E150F84D0C949D278A309E
:1023800009F48FC08B3009F46FC0893039F7809120
:10239000FF04813219F7809103059091040502979B
:1023A000E8F68091E800877F8093E8008091E8005C
:1023B00082FF38C09091F3008091F200029731F4CF
:1023C0008091F100813011F0863021F48091F1008C
:1023D00080934D018091E8008B778093E8000E9404
:1023E000BE05BCCF8091FF04813A09F0B7CF809140
:1023F000E800877F8093E8008091030590910405B1
:10240000892B61F468E083EF94E070E00E94690634
:102410008091E8008B778093E800A0CF60E090E0A7
:1024200080E0F3CF8091FD048111C0CF97CF8091E0
:10243000FF04813A09F092CF809103059091040541
:10244000892B09F08BCF8091E800877F8093E8008B
:102450008091E80080FFFCCF80914E018093F100D5
:102460008091E8008E77B9CF8091FF04813209F026
:1024700075CF8091030590910405892B09F06ECFEB
:102480008091E800877F8093E8000E94BE0581E08C
:1024900090910105911101C080E080934E0113DFFE
:1024A0005DCF8091FF04813209F058CF8091E80020
:1024B000877F8093E8000E94BE058091020580938B
:1024C0004C014CCF8091FF04813A09F047CF8091B5
:1024D000E800877F8093E8008091E80080FFFCCFD0
:1024E00080914C01BBCF803899F0823809F0C2C18D
:1024F000809103058F70873008F0BCC18093E9009C
:102500008091EB0085FB882780F91092E90006C0D6
:102510008091FB049091FC04911182609091E800FD
:10252000977F9093E8008093F1001092F1008091E2
:10253000E8008E779BC1882309F489C1823009F0B5
:1025400099C18091010581118CC1809103058F7023
:102550002FEF280F263008F08DC18093E9002091DD
:10256000EB0020FF7EC1933031F48091EB0080625C
:102570008093EB0076C19091EB0090619093EB001B
:1025800021E030E001C0220F8A95EAF72093EA00AB
:102590001092EA008091EB008860EACF81116AC155
:1025A000109101051F778091E3008078812B809343
:1025B000E3008091E800877F8093E8000E94BE05D9
:1025C0008091E80080FFFCCF8091E30080688093D9
:1025D000E30082E0111183E08093FD044BC1805839
:1025E000823008F047C180910105909102058C3D31
:1025F00023E09207A1F583E08A838AE289834FB7BB
:10260000F894DE01139620E03EE051E2E32FF0E083
:1026100050935700E49120FF03C0E295EF703F5FB5
:10262000EF708E2F90E0EA30C0F0C7968D939D93A7
:102630002F5F243159F74FBF8091E800877F809347
:10264000E8006AE270E0CE0101960E94690680917E
:10265000E8008B778093E8000DC1C096E7CF4091EA
:10266000030550910405292F33272330310509F440
:1026700044C078F52130310509F46FC08BE390E058
:10268000E7EEF9E02230310509F0F4C02091E800CE
:10269000277F2093E80020910505309106058217D9
:1026A000930708F49C0140E02115310509F064C04E
:1026B000411162C08091E80082FDC9CF8091FD0484
:1026C000882329F2853019F28091E80083FFF2CF48
:1026D000BECF21323105A9F12232310509F0CAC03D
:1026E0004115510509F443C04130510509F0C2C0FC
:1026F00086EB90E0EDEEF8E0C9CF992781309105A7
:10270000C1F0009759F0029709F0B4C0E4E3FAE091
:10271000E4918E2F90E0E4E3FAE007C0EEE5FAE002
:10272000E4918E2F90E0EEE5FAE0009709F4A2C064
:10273000ADCFE2E4FAE0E4918E2F90E0E2E4FAE03B
:10274000F4CF4115510571F04130510509F092C0A7
:1027500089E090E0E2E1FAE099CF82E190E0E2E204
:10276000FAE094CF89E090E0E9EFF9E08FCF84E4DC
:1027700090E0E3EAF9E08ACF8091FD04882309F430
:1027800066CF853009F463CF8091E80083FD5FCF89
:102790008091E80082FD8ECF8091E80080FF84CF99
:1027A0009091F3008091F2002115310519F08830E5
:1027B000910550F041E0089709F040E08091E80071
:1027C0008E778093E80070CF44914093F10031966A
:1027D000215031090196E8CF803809F04BC0809133
:1027E000E800877F8093E8008091FE048093F100E9
:1027F0009ECE81113FC0109101051230D8F5809115
:10280000E800877F8093E8001093FE040E94BE05D5
:10281000112311F084E005C08091E30087FDFACF19
:1028200081E08093FD0442E061EC81E00E94DD05DF
:1028300042E261EC82E00E94DD058091FD0484307B
:1028400021F081E080934F0115C082E0FBCF8091A1
:102850000105813079F481E0933009F080E08093C4
:10286000FC041092E9008091E800877F8093E800E3
:102870000E94BE058091E80083FF0AC08091E800B5
:10288000877F8093E8008091EB0080628093EB006B
:10289000AA96E3E00C9472271F920F920FB60F9244
:1028A00011242F933F934F935F936F937F938F9355
:1028B0009F93AF93BF93CF93DF93EF93FF93D09109
:1028C000E900DF708091EC00C82FC17080FDC0E886
:1028D0001092E9008091F000877F8093F000789457
:1028E00020DD1092E9008091F00088608093F00074
:1028F000CD2BCF70C093E900FF91EF91DF91CF9185
:10290000BF91AF919F918F917F916F915F914F9107
:102910003F912F910F900FBE0F901F901895D3DC11
:102920002FEF84E39CE0215080409040E1F700C00D
:10293000000088E19AE00FB6F894A89580936000B3
:102940000FBE90936000FFCF662309F45BC08D3CFF
:1029500031F40E94C90781958093E0048CCC8E3CB1
:1029600019F40E94C907F8CF8F3C31F40E94C907BF
:1029700081958093DF04F2CF803D19F40E94C9074E
:10298000F8CF893D29F40E94A7078093E104E6CFA0
:102990008A3D21F40E94A7078195F7CF8B3D31F442
:1029A0000E94A70781958093E204D8CF8C3D19F44B
:1029B0000E94A707F8CF9FE2980F983070F4815DCE
:1029C000990B21E030E001C0220F8A95EAF780914F
:1029D000DE04822B8093DE04C1CF8D3D31F48091E3
:1029E000D80481608093D804B9CF8E3D21F48091C2
:1029F000D8048260F7CF8F3D09F0B0CF8091D80422
:102A00008460F0CF4091DF048D3C59F48091E00464
:102A100087FF0DC01092E00441110BC01092D60444
:102A200008C08E3C81F48091E00418169CF3442386
:102A300081F08091E1049091E204892B09F08ECF1E
:102A40001092D7048BCF8F3C49F447FFF0CF109200
:102A5000DF048091E0048111ECCFE0CF803D19F4D8
:102A60001416ACF3E4CF9091E104893D29F41916D2
:102A7000F4F61092E104DBCF8A3D19F497FFD7CF2B
:102A8000F8CF9091E2048B3D29F497FFD0CF1092BC
:102A9000E204CDCF8C3D19F41916CCF3C8CF9FE2D8
:102AA000980F983090F4815D990B21E030E0B901E6
:102AB00002C0660F771F8A95E2F7CB01809590914F
:102AC000DE0489238093DE04B2CF8D3D31F4809102
:102AD000D8048E7F8093D804AACF8E3D21F48091B4
:102AE000D8048D7FF7CF8F3D09F0A1CF8091D80416
:102AF0008B7FF0CF882361F19CEF980F913A20F4FF
:102B00000E94E7060C94E40C90E2980F983050F481
:102B1000877091E001C0990F8A95EAF7892F0E948A
:102B2000CD0AF0CF9BE5980F933020F490E080E041
:102B30000C946D0798E5980F9B3120F490E080E0AD
:102B40000C94460793E3980F933110F460E0FCCEA9
:102B50000895CF93C82F8823B1F18CEF8C0F813A61
:102B6000A0F580914E01813001F58091EB0487FF43
:102B70001CC0EC2FE695E695E695F0E0E854FE4F94
:102B8000828190E04C2F477021E030E002C0220F9C
:102B9000331F4A95E2F782239323892B79F08C2FF8
:102BA0000E94E7060E94E40C09C0E2EBF1E081918B
:102BB000C817A9F381E0E83BF807C9F78C2F0E94FA
:102BC00012070E94E40CCF91089580E28C0F8830A8
:102BD00068F4C77021E030E001C0220FCA95EAF71F
:102BE00080912C02822B80932C02EBCFEBE5EC0F33
:102BF000E33040F4F0E0E05BFE4F808190E00E9423
:102C00006D07E1CFE8E5EC0FEB3150F4F0E0EE0FAB
:102C1000FF1FED5AFE4F808191810E944607D3CF5E
:102C200083E38C0F833178F661E08C2F8DDECBCF80
:102C30001F93CF93DF93182FEB018BDF8FE99FE07A
:102C40000197F1F700C000002197C1F7812F52DFF3
:102C5000DF91CF911F910895EF92FF920F931F93F1
:102C6000CF93DF93C62FD42F022FFC0185818823B9
:102C7000A1F060934305EADA909342058093410501
:102C8000C77081E001C0880FCA95EAF70E943D0D28
:102C9000CDB7DEB7E6E00C946F278091430568134B
:102CA00034C0E0904105F0904205D0DA8E199F09BA
:102CB000883C910550F510E21D0FCD17B9F080E268
:102CC0008C0F883040F4C77081E001C0880FCA952E
:102CD000EAF70E94380D183048F481E09D2F977074
:102CE00001C0880F9A95EAF70E943D0D6AE070E0F6
:102CF000802F9EDF183060F6D77081E001C0880F0A
:102D0000DA95EAF70E94380DC3CFC77081E001C0A1
:102D1000880FCA95EAF7F6CF80E09091D104209110
:102D2000D004291731F1E92FF0E0EE52FB4F8081FA
:102D300087FB222720F98F779F5F93709093D104B0
:102D40009091CF049F5F9093CF04882349F0813006
:102D500071F46AE070E08EE4211108C08BE406C0D3
:102D60006AE070E089EA211101C08AEA61DF81E04E
:102D7000D4CF0895B0E0A0E0E0ECF6E10C944F274A
:102D80007C01FC018481882319F161E0C7010E9464
:102D90002E0CEC01FC01E851FC47E730F105A0F5F1
:102DA000E75FF74D0C949D2726E241EE61EEC701E7
:102DB00053DF80910102877059F0F70185818823E4
:102DC00039F08091EC0482FF03C082E00E94BF0BC7
:102DD000CDB7DEB7EAE00C946B2727E245EE65EE4F
:102DE000E6CF26E241EE60EEE2CF27E245EE64EE6A
:102DF000DECF26E241EE62EEDACF27E245EE66EE66
:102E0000D6CF28E241E0EBCFF7018581882309F492
:102E1000A2C3109243059E0130572332310508F0BA
:102E200085C384E090E00E94CA279093EC048093CD
:102E3000EB04FE01E150F047E232F10520F4E05FDF
:102E4000F74D0C949D278091EB0481608093EB04F7
:102E500092C08091EC0488608093EC048CC08091D7
:102E6000EB048260F3CF8091EB048460EFCF80911C
:102E7000EB048860EBCF8091EC048160EDCF809112
:102E8000EC048260E9CF8091EB048061DFCF809118
:102E9000EB048062DBCF8091EB048064D7CF13DA40
:102EA0008091EB048068D2CF8091EB048C60CECF10
:102EB0008091EC048360D0CF8091EB048E7FC6CFED
:102EC0008091EC04877FC8CF8091EB048D7FBECFCB
:102ED0008091EB048B7FBACF8091EB04877FB6CFD4
:102EE0008091EC048E7FB8CF8091EC048D7FB4CFBD
:102EF0008091EB048F7EAACF8091EB048F7DA6CFCB
:102F00008091EB048F7BA2CFDED98091EB048F7789
:102F10009DCF8091EB04837F99CF8091EC048C7FCF
:102F20009BCF8091EB0482FB992790F921E09227B7
:102F300090FB82F990FB83F989CF8091EC04982F64
:102F4000909591708E7F892B90FB81F985CF909120
:102F5000EB04892F8F7B96FF806478CFB4D9909152
:102F6000EB04892F97FB87F9805870CF61E08EE0E2
:102F700090E00E94CF276091EB047091EC0484E014
:102F800090E00E94E9279FD914CF60E0F0CF9091A4
:102F9000EB04892F8F7E94FF806158CF9091EB04D2
:102FA000892F8E7F90FF816051CF9091EC04892F03
:102FB000877F93FF886050CF85E3C8C285E3D5C281
:102FC0009E01205E324520323105A8F4811115C0E2
:102FD000CF7181E090E09C0102C0220F331FCA959F
:102FE000E2F7E901622F83E090E00E94CF27CE0153
:102FF0000E94E30BDECE882381F0C3303CE7D30789
:1030000009F476C008F05AC0C1159CE7D90709F445
:1030100063C0C130DC4709F471C0F7018581C0810C
:10302000D181882309F477C0CE010E94050B182FA7
:10303000682FCE010E94740BBE01812F0E94970958
:103040000E94B609D82FC92FA82EF701C580B680D7
:10305000B2949FE0B92280910102877001F10C2D9A
:10306000CC20F1F08C2F807F803469F080E28D0FCE
:103070008830A8F08C2F807E803229F4F1E0FD1793
:1030800070F4BB2061F08091EC0482FF08C082E004
:103090000E94BF0B80910102877001E009F000E0FF
:1030A000DC2ED2948FE0D8222BE02D1508F491C0AD
:1030B000ED2DF0E0EE5CF74D0C949D27CB35FCE751
:1030C000DF0739F1CC352CE7D207C9F0CA35DC4728
:1030D00009F0A3CF81E01AC0F6D88FEF94E3ECE0BB
:1030E00081509040E040E1F700C000000E94C70618
:1030F0006FEF7FEF90E080E00E94E92710DC809185
:10310000EC0482FB882780F991E089270E94690EF0
:1031100084CF80E0FBCFCE010E94410B182F8CCFD3
:103120001C2F1F70C07F11F01295107FCC20B9F0BA
:10313000112369F080E28D0F883010F0A11009C0D2
:1031400080912C02182B10932C020E94E40C8D2FDE
:103150003FC080910302182B10930302F6CF8D2FEE
:10316000C9DC1123B1F1D05ED83010F0A11004C039
:10317000812F0E94CD0A06C010958091030218236A
:10318000109303020E94E40C24C01C2F1F70C07F08
:10319000C03211F01295107FAA2051F031E0A31631
:1031A00009F457C0CC2009F463C0BB2041F1CFCF54
:1031B0008091EC0482FD1FC0CC20C1F0112339F0B6
:1031C00080912C02182B10932C020E94E40C80E0BA
:1031D000C0DCED2DE850FF0B349708F08FC10E9442
:1031E000940760E0C7010E942E0CF2CD80E082DCE3
:1031F000112379F3BDCFCC2099F0B11004C0812FF9
:103200000E943D0DE6CF81E0B812E3CF809102022B
:10321000912F98231917E9F2182B10930202D9CF96
:10322000B110D7CF812F0E94380D90910202812FCB
:10323000892329F0812F8095892380930202809130
:10324000D901912F982329F2109518231093D901B1
:10325000C0CFCC2029F095E09B1508F4BACFCFCF92
:10326000E4E0EB1508F4B5CF812F0E94380DB1CF03
:10327000BB20D1F3F9E3AF120CC02FEF37EE83E0A0
:10328000215030408040E1F700C000008D2F32DC3B
:10329000A0CFEFE3FCE93197F1F7F6CF8C2F8695BD
:1032A0008695837069F0813009F093CF8D2F9C2F24
:1032B0009370C11002C080E090E00E94460789CF61
:1032C0008D2F9C2F9370C11002C080E090E00E946F
:1032D0006D077FCF6C2D8D2F37DB7BCF8C2F8370CD
:1032E00009F03FC0C11075CF4D2F429546954770EC
:1032F000440F440F2D2F2F7030E0042E02C0220FF8
:10330000331F0A94E2F790E080E0D4FF09C08FE019
:1033100090E002C0880F991F4A95E2F7809590953A
:10332000C695C695C370C23099F078F44091780282
:1033300050917902C13039F0822B932B842395234D
:103340000E94E30B46CF242B352B822B932BF8CFF7
:10335000822B932B20917802309179028227932738
:10336000EFCF8695CC2011F08C2F8170882309F443
:1033700030CF4D2F429546954770440F440F2D2F67
:103380002F7030E0042E02C0220F331F0A94E2F7A0
:1033900090E080E0D4FF09C08FE090E002C0880F89
:1033A000991F4A95E2F780959095C695C695C3708A
:1033B000C23099F078F44091A0025091A102C1303E
:1033C00039F0822B932B842395230E94AA0B01CFE3
:1033D000242B352B822B932BF8CF822B932B2091F0
:1033E000A0023091A10282279327EFCFCF70CC208B
:1033F00029F08C2F0E94D50B8D2F02CF8D2F0E948C
:10340000380D8C2F0E94AF0BE4CE8D2FF2EFAF164C
:1034100099F1FA1570F020EFA216D1F031EFA31652
:1034200091F0CC2009F456C0B11091CE8C2F8F7141
:1034300027C093EFA91639F1E4EFAE12F2CF9091C5
:10344000EC0492FD2EC08C2F8F71CC20D9F218C0C5
:10345000CC2069F0F4E0FB1508F4BBCECF7181E01D
:1034600090E002C0880F991FCA95E2F7B8CF25E017
:103470002B1508F4AECEF2CF8C2F8F71C110C2CFB6
:103480000E94D50BA6CE90E080E0CC2009F49DCF21
:10349000CF7181E090E002C0880F991FCA95E2F7D2
:1034A00094CFCC2061F08C2F8F7192FFE9CF98E000
:1034B000899F90011124236020930102E1CF81E0D4
:1034C0000E94BF0BE1E0EB1508F083CE82E00E9482
:1034D000BF0B7FCEBB2079F0893341F4FFEF27EE9D
:1034E00033E0F15020403040E1F7CECE8FE39CE94D
:1034F0000197F1F7C9CE8C2F8F7184CF002309F487
:1035000070CE8091010280FD6CCEF7011582869508
:10351000869586950E94D50BC7012CDC809101020F
:103520008695869586950E94AF0B5BCEC631FCE7EB
:10353000DF0709F045CD80912C028A7A91E009F4E9
:1035400090E09093D801811137CD89E20E94120753
:103550000E94E40C2ECCC6312CE7D20709F030CD06
:103560008091D80181112ACD89E20E94E706F0CF2F
:10357000CF93DF9380910002807F09F04CC080914F
:10358000FF01882309F447C0E091400550910705E9
:10359000C091FB01D091FA016091FC017091FD0195
:1035A00047E05E17C1F18E2F90E0E49FF0011124F7
:1035B000E85FFA4F2481222389F1489FF001499F57
:1035C000F00D1124DF01A85FBA4F11962C911197CD
:1035D0002C1324C02C912D1321C015962C911597D6
:1035E00021111CC012962D913C91261B370B283CB3
:1035F0003105A0F4809100028F70806180930002F9
:10360000E25FFA4F80818F70806180838AEF91E062
:10361000B1DB0E94FB0ADF91CF910895FC01319646
:10362000E770BFCFA4E1B0E0E8E1FBE10C944D27E7
:103630008C0186E0F801DE011F9601900D928A95BB
:10364000E1F7F8018481E5809AEFA92E91E0B92E87
:103650009091FE01911126C0882309F1EE20E9F036
:10366000C8010E94E80BF82E8823B9F087E0F80122
:10367000D50101900D928A95E1F78091FE0181308C
:1036800031F48091FA019091FB010E94370B70DFB9
:103690008F2D6496ECE00C946927C8016BDBFF2446
:1036A000F394F6CFD080C18082809380F090FF01A8
:1036B0002091FC013091FD01A401421B530BFF201E
:1036C00009F4D3C0483C510508F08EC0882301F3AB
:1036D0009091FB0180910002282F207F09F054C0B7
:1036E000C91213C09091FA01D9120FC0E11046C05F
:1036F0008F708061809300028AEF91E03BDB8091C4
:103700000002F8018683F12CC3CFE11037C06C2D85
:103710008D2D0E944F056C2D8D2D0E944F05E82E9A
:103720008111F1CFDF86C88A8F8598890E94370B77
:10373000292F22952F70243058F49F70223080F06A
:10374000992391F0F8019681907F71F4FE2CA0CF1F
:103750002A5F2F70223060F0C8010CDBEF2CF6CF0F
:10376000992311F0882391F3805E883078F3F4CFA9
:10377000803F60F3815F833078F7E8CF809100026B
:10378000816080930002BFCFC91207C09091FA01F7
:10379000D91203C0EE2009F489C0C8010E94E80BC9
:1037A000882309F47ACFEE2009F477CF80910002C4
:1037B000803280F02091FA013091FB01398728870F
:1037C0009B868A869091FE019C871D868E87CE01FE
:1037D0000896D0DA87E0F801AAEFB1E001900D92E7
:1037E0008A95E1F7C5DE5BCF90910002292F207FFB
:1037F00049F48AEF91E0BEDA87E0F50111928A95EB
:10380000E9F781CF882309F443CF8091FB018C1124
:103810000FC08091FA01D8120BC0E11009C0968345
:10382000C801A8DA87E0F50111928A95E9F730CF4F
:10383000C8010E94E80B882309F42FCFEE2009F479
:103840002CCF80910002803228F22091FA01309131
:10385000FB013A8329839C828B829091FE019D8398
:103860001E828F83CE010196B4CF483C5105D0F61D
:10387000882309F414CFFE2CEE2009F40ECF80919A
:10388000FB018C111FC08091FA01D8121BC08091DE
:10389000000280FD0EC0982F907F59F08683903FE4
:1038A00031F0982F907F905F8F70892B8683C801AD
:1038B00061DA87E0F801AAEFB1E001900D928A95F4
:1038C000E1F7E6CEC8010E94E80B811183CF809119
:1038D0000002816080930002C8014CDAD9CEABE1CE
:1038E000B0E0E5E7FCE10C9456274E8B5F8B688FC8
:1038F000798F8A8F9B8F9111109203021D8A86E027
:10390000FE017696DE011F9601900D928A95E1F7F1
:103910008B89882351F061E0CE010F960E942E0C16
:1039200061E0CE010F960E942E0C87E0FE013F96CB
:10393000DE01189601900D928A95E1F7CE01089666
:1039400071DE81112AC087E0FE013896DE011196F2
:1039500001900D928A95E1F78C858823F1F02091F2
:10396000070530E0C901019687709927409140050D
:1039700048171906E9F097E0929FD001939FB00D88
:103980001124A85FBA4FFE01319601900D929A95CD
:10399000E1F7809307050E94FB0A17E0809140053C
:1039A00090910705891312C06B96E3E00C9472277F
:1039B0000E946311109207051092400587E0EAEF1C
:1039C000F1E0DF011D928A95E9F7E7CF819FC00101
:1039D0001124885F9A4F26DE882331F380914005B9
:1039E00090E001968770992780934005D7CF2F925A
:1039F0003F925F926F927F928F929F92AF92BF920F
:103A0000CF92DF92EF92FF920F931F93CF93DF93AA
:103A10008091CD04882309F48CC0C091CB04D0914F
:103A2000CC040E9426118C1B9D0BC29708F462C027
:103A30000E9426119093CC048093CB0482EC92E0F8
:103A400090939E0280939D028091E30460E088231E
:103A500009F48DC08AEA98E00E94D60D8091A002F8
:103A60009091A1020E940A0C882341F0813059F103
:103A700060E08BE998E00E94D60D05C060E085EA21
:103A800098E00E94190E60E088E998E00E94D60D47
:103A900060E082E998E00E94190E8091A002909166
:103AA000A1020E940A0C823009F455C080F08330D4
:103AB00009F455C0843009F456C060E083E798E00B
:103AC0000E94190E09C060E080EA98E0DACF60E059
:103AD0008CE898E00E94D60D60E080E798E00E94B4
:103AE000D60D0E94940781FB662760F98AE698E06C
:103AF0000E94190E8091C4049091C504892BE1F5B0
:103B00008091CA048823A9F00E94D8060091C604B7
:103B10001091C7042091C8043091C904601B710B37
:103B2000820B930B6F3F7F4F8F4F9F4710F40E9484
:103B3000290EDF91CF911F910F91FF90EF90DF90B1
:103B4000CF90BF90AF909F908F907F906F905F903D
:103B50003F902F90089560E086E898E0BBCF60E04A
:103B600080E898E0B7CF60E089E798E0B3CF8DEACE
:103B700098E00E94D60DBECF8091CD04882309F431
:103B8000BFCF8091C3048111BBCF0E94430E20910F
:103B9000C4043091C5042115310509F4B1CF80E08A
:103BA00041E050E0082F10E01A01082E02C0220C5C
:103BB000331C0A94E2F7B10162237323672B11F4DB
:103BC0008F5FF0CF9091C20490FF93C0880F880F51
:103BD000880F8093450110924801895F80934601C8
:103BE00083E08093490124E630E047E050E063E45D
:103BF00071E088E7CBD6892B09F082CFA80125E0B8
:103C0000440F551F2A95E1F78091C20480FF83C0BD
:103C1000E2EAF2E080E2DF011D928A95E9F7AAEA82
:103C2000B1E006EA11E08EEAC82E81E0D82E97E0D6
:103C3000592E772473948D91E80129918E01240FD8
:103C4000352F311D2E533D4FE82FF0E0EE55FD4F3F
:103C500090E080E0652C681A872C082E01C0880C43
:103C60000A94EAF77901A12CE701B9907E01B82006
:103C7000662D6A196770962E062E000C770BDB2DC9
:103C800001C0DD0F9A94EAF771956195710967702B
:103C9000772701C0B6946A95EAF7BD2A6081962E0F
:103CA0009B289082A39468E0A612DECF01963196FD
:103CB0008830910579F6CA16DB0609F0BCCF04E618
:103CC00010E020E230E042EA52E060E488E7DED62D
:103CD000892B09F015CFE101C095D0958091C404DE
:103CE0009091C504C823D923D093C504C093C404BC
:103CF00007CF8295880F807680934501980136958D
:103D000027953695279520934801815E809346013B
:103D10002093490168CF4E535D4F04E610E020E246
:103D200030E0D3CFAFE0B0E0E8E9FEE10C944C27FF
:103D30008E010F5F1F4F8AE0F80111928A95E9F713
:103D40008BE8C82E81E0D82EF12CE12CAA24A39474
:103D5000B12C26E9822E21E0922EF60181916F018D
:103D60008F3F09F442C0F894E82FE295EF70F0E03D
:103D700021A18F70A50102C0440F551F8A95E2F75B
:103D8000CA01922F982B91A392A18095892382A397
:103D9000789400C0E0E9F1E0712C31E021912F3FEF
:103DA00009F49DC0A22FA295AF70B0E090968C91BF
:103DB00090E02F7002C0959587952A95E2F780FDD7
:103DC0008EC0832F782A330F8E169F0639F7F6019F
:103DD000319780818F3F11F00E94770850EA5A9501
:103DE000F1F7F801EE0DFF1D70828FEFE81AF80A67
:103DF00095E0E916F10409F0B0CF4AE050E0B801CF
:103E00008CE692E00E94AC27009741F02AE0F8018E
:103E1000ACE6B2E001900D922A95E1F700917702AD
:103E200010E006581D4F892B09F45BC081E0809398
:103E300031020E9426119093300280932F02D12CE0
:103E4000C090E304CC2009F4A7C07E01EBE0EE0EA5
:103E5000F11C85E0F70111928A95E9F780916702DC
:103E60008A3008F064C040EF5FE0B701C8010E94EB
:103E7000B10C882309F47FC046ED5EE0B701C801AC
:103E80000E94B10C882309F476C045EA5FE0B701CF
:103E9000C8010E94B10C882309F46DC04FE75EE0B1
:103EA000B701C8010E94B10C882309F464C01092C4
:103EB00067028091760290E045E050E0B7018658B5
:103EC0009D4F0E94AC2721E020933802892B09F0F6
:103ED00045C0C12C8C2D8D292F96EDE0F9C780E0CF
:103EE00071CFD0903102DD2009F4A9CFE0902F02EC
:103EF000F09030020E9426118E199F09059708F450
:103F00009ECF45E050E06CE672E0C8010E94AC270D
:103F1000892B59F085E0ECE6F2E0D80101900D9292
:103F20008A95E1F7109231028BCFD12CFBCFA09074
:103F30003202B09033020E9426118A199B09843FF5
:103F4000914008F090CF80913802882311F285E0EB
:103F5000F70111928A95E9F710923802A091760242
:103F6000B0E0A658BD4F85E0FE013B9601900D9252
:103F70008A95E1F7AFCF809167028F3F31F08F5F75
:103F8000809367028A3008F494CF0E9426119093A0
:103F9000330280933202D7CFE0907602F12CA70152
:103FA00046585D4F7A0185E0F801ACE4B2E001903B
:103FB0000D928A95E1F765E070E08CE492E00E9452
:103FC000F70780934B0285E0E1E5F2E0D70101902D
:103FD0000D928A95E1F788E0EEECF4E0A7E5B2E017
:103FE00001900D928A95E1F768E070E087E592E034
:103FF0000E94F7078093560280905F0290906002C3
:10400000A0906102B09062028091340290913502DA
:10401000A0913602B091370288169906AA06BB060F
:1040200009F458CF8092340290923502A092360261
:10403000B09237020E94D806861A970AA80AB90ACF
:104040008092680290926902A0926A02B0926B021A
:1040500041CFA6E0B0E0EEE2F0E227C70E942611D1
:104060008C0180912D0290912E028017910779F09A
:1040700019821A820E942611682F49815A81792F4C
:1040800080E090E02CDC10932E0200932D02269607
:10409000E4E027C71F921FB61F9211248F939F93AE
:1040A000AF93BF938091ED04811113C08091EE0412
:1040B0009091EF04A091F004B091F1044196A11DFC
:1040C000B11D8093EE049093EF04A093F004B0939D
:1040D000F104BF91AF919F918F911F901FBE1F90D0
:1040E0001895CDB7DEB72D970FB6F894DEBF0FBE8B
:1040F000CDBF85B7806885BF85B7806885BF84B729
:10410000877F84BF0FB6F894A8958091600088617E
:1041100080936000109260000FBE80E890E00FB6C0
:10412000F89480936100909361000FBE81E08093CA
:104130004F0181E798E09093AF018093AE010E9418
:104140006E050E940F068091E20084608093E20079
:1041500078948091FD048823A1F01091E9001F70EC
:104160009091EC00892F817090FD80E8182B1092BF
:10417000E9008091E80083FD0E9491111F70109367
:10418000E90082E084BD93E095BD9AEF97BD8093EE
:104190006E00109268021092690210926A021092E8
:1041A0006B028091D80080618093D8002AE12A9523
:1041B000F1F700C08091D900182F117080FD04C064
:1041C0000E946E051092FD041093E3041093E40422
:1041D000109338011111F4D4EEECF4E088E0DF0123
:1041E0001D928A95E9F78091380191E089278093A3
:1041F00091028091380190939402809138018091CE
:104200003801811106C084EF80934A0185EF8093C5
:104210004B0160E080E00E94290861E080E00E949C
:104220002908EFE8F1E03197F1F700C0000010E055
:1042300080919402181708F487C08091380180910A
:10424000380195E0811190E09093770285E0891B19
:10425000809376020BE811E050E9E52E51E0F52E4F
:10426000D8018D918D018F3F11F00E947708E016E3
:10427000F106B1F700E911E046E9E42E41E0F42E41
:10428000F80181918F018F3F11F00E947708E016AD
:10429000F106B1F78AE0EAE7F2E0DF01282F1D928C
:1042A0002A95E9F7ECE6F2E0DF011D928A95E9F73D
:1042B00090E080E06FD6833E9E4F21F163EE7EEF6B
:1042C00090E080E086D660E082E090E068D681E011
:1042D00090E0909379028093780261E083E090E02F
:1042E0005ED660E074E184E090E073D640E050E098
:1042F000BA018FE090E065D640E050E0BA0183E17A
:1043000090E05FD682E090E03DD68093840284E026
:1043100090E040D69093EC048093EB0403DDEFEF44
:10432000F6E721E0E150F0402040E1F700C0000056
:10433000F9DC80917A0280FF19C06FEF7FEF90E087
:1043400080E047D60E94C70660E0812F0E940D08DA
:10435000082F61E0812F0E940D08E12FF0E0EE565A
:10436000FD4F880F802B80831F5F62CF83E090E03A
:1043700009D690E00E94E30B8091E304882309F4BE
:10438000B8C083E08093C20480FDB5C080E880930C
:104390009F02C8D26BE070E08BE193E00E941C0E9C
:1043A0008823E9F18091C20465E070E081FDA5C039
:1043B00086E193E00E941C0E882389F16DE070E095
:1043C00084E093E00E941C0E882349F10E94D806E5
:1043D000605A75418F4F9F4F6093C6047093C70416
:1043E0008093C8049093C904E2ECF2E080E092E08C
:1043F000DF019C011D9221503040E1F7F0939E02B5
:10440000E0939D028FEF9FEF9093C5048093C404C7
:1044100081E08093CD048093CA041092C3048091FC
:10442000E304811101C0CFD389E391E09093E804C4
:104430008093E70494E8E92E92E0F92E2FE8C22E4B
:1044400022E0D22E7724739432E0A32EB12C8091F7
:10445000FD0410E402E1853009F484C063DC05E862
:1044600012E08AE7882E82E0982ED401F80191911B
:104470008D91CE16DF0609F47FC09817C1F3A09185
:10448000E304AD87612CF40151904F01D8012D90C8
:104490008D01251429F1412C332433942524822DB8
:1044A0008321B1F0BD85BB2399F04F8268860E94BD
:1044B00026119A8789877B8691E0852D832109F4CF
:1044C00090E09C874F81588569857A858B8507DACE
:1044D0004394330CE6E04E12E2CFF801319750825C
:1044E0006394FAE06F12CFCF0E948E086624639423
:1044F00047C080E047CF80E24ACF81E193E05ACFC6
:104500008091FD04843029F10E94290E1092ED045F
:1045100088E190E00FB6F894A895809360000FBEF4
:104520001093600083B7817F846083BF83B781600D
:1045300083BF7894889583B78E7F83BF0FB6F89436
:10454000A89580916000886180936000109260005F
:104550000FBEE8DBEAE7F2E08191811167C1EE1658
:10456000FF06D1F78091FD04853009F4C9CF0E9480
:1045700063110E94940772CF981381CF6ADD612C7A
:104580008090E304882019F00E948C16882E809178
:104590009502882351F0109295028091D004809367
:1045A000D1048091CE048093CF04912C8091940209
:1045B000981680F08091E304882319F00E948C16ED
:1045C000882A882009F441C00E948E0810DA0E94CF
:1045D000430E3EC061E0892D0E940D08182F60E057
:1045E000892D0E940D08E12FEE0F8E2B092D10E072
:1045F000D801AE56BD4FEC919E2F9370891719F1DB
:10460000EE0FEE0FE82BEC9380919102890DEF7085
:10461000F0E0EA56FE4F01571D4F5080D8019C91A3
:10462000590E5C92B1E060E0B51524F0EFEF5E1634
:104630001CF461E00E944C08852D550C990BB501C6
:1046400069D4D8018C939394B1CFD1D96110BFCFE5
:1046500086E0EDEDF4E0DE01119601900D928A9571
:10466000E1F74090DE049090DF048090E0045090E9
:10467000E1046090E2041092DF041092E0041092D2
:10468000E1041092E204892D882909F447C00091C1
:10469000DB041091DC040E9426119C01201B310BCD
:1046A0009091D604992309F4E7C025313105B0F182
:1046B0009F3F19F09F5F9093D604992059F00E9474
:1046C000C9079FEF19140CF491E0899F802D1124E4
:1046D0008093DF04882059F00E94C90791E01814E4
:1046E0000CF09FEF899F802D11248093E00480912E
:1046F000DF04882399F01091E004112379F00E94DF
:10470000E907882309F486C08093DF04812F0E9483
:10471000E907882309F481C08093E004852D862968
:1047200009F446C00091D9041091DA040E942611C0
:104730009C01201B310B9091D704992309F497C059
:1047400021353105A8F19F3F19F09F5F9093D70461
:10475000552059F00E94A7079FEF15140CF491E023
:10476000899F802D11248093E104662059F00E94D6
:10477000A70791E016140CF09FEF899F802D11245C
:104780008093E2048091E104882391F01091E20487
:10479000112371F00E94E907882309F441C0809336
:1047A000E104812F0E94E9078823E9F18093E20464
:1047B0008091DE04481217C08091DF04882311F035
:1047C000981211C02091E004222311F082120BC034
:1047D0009091E204992311F0961105C03091E10403
:1047E000332309F43FC00E943B1186E0FE0131965D
:1047F000ADEDB4E001900D928A95E1F70E94940727
:1048000090919602891709F422CE809396020E9415
:10481000D8061DCE7092DF0479CF7092E0047ECF6F
:104820007092E104BECF7092E204C2CF8091FC048A
:10483000882309F497CE90E199BD09BD09B400FE23
:10484000FDCF8091D8008F7D8093D8008091E000CB
:1048500082608093E0008091E00081FDFCCF0E94A7
:10486000631180CE822B892B09F4BFCFBCCF2B30B4
:10487000310508F06ACF9CCF2B30310508F01ACFF4
:104880004DCFEF92FF920F931F93CF93DF93182F8B
:10489000EB011092BC0084EA8093BC000E942611B8
:1048A0007C018091BC0087FF27C08091B900887F80
:1048B000883029F08091B900887F803181F510938C
:1048C000BB0084E88093BC000E9426118C0180917B
:1048D000BC0087FF1DC02091B900287F90E080E0D8
:1048E000283191F081E090E0203411F490E080E0F4
:1048F00091958195910908C0C7010E943211C8178E
:10490000D90778F68EEF9FEFCDB7DEB7E6E0E7C2C6
:10491000C8010E943211C817D907C8F6F3CF8FEF2C
:104920009FEFF2CF1092B9008CE08093B800089509
:104930000F931F93CF93DF93EB018093BB0084E829
:104940008093BC000E9426118C018091BC0087FFDF
:1049500011C02091B900287F81E090E0283211F445
:1049600090E080E0919581959109DF91CF911F9121
:104970000F910895CF3FDC0741F3C8010E94321127
:10498000C817D90710F78EEF9FEFEFCFB0E0A0E088
:10499000EBECF4E281C2782E5B016A0189010E948E
:1049A00026114C01C1E0D0E00431110550F0C5E002
:1049B000D0E00F3F100729F0C80164E170E053D246
:1049C000EB01BE01872D5DDF7C0197FF09C00F3F22
:1049D0001007B9F3C4010E9432110817190788F7AC
:1049E000E501CA0CDB1CCC15DD0511F0F7FE08C093
:1049F00084E98093BC00C701CDB7DEB7EDE068C2A3
:104A0000B801899195DF7C01EECFB0E0A0E0EAE04B
:104A1000F5E242C2782E5B016A0189010E942611EB
:104A20004C01C1E0D0E00431110550F0C5E0D0E008
:104A30000F3F100729F0C80164E170E014D2EB01C8
:104A4000BE01872D1EDF7C0197FF09C00F3F1007B5
:104A5000B9F3C4010E9432110817190788F7E5015C
:104A6000CA0CDB1CCC15DD0511F0F7FE08C084E98B
:104A70008093BC00C701CDB7DEB7EDE029C2FE01CF
:104A80008491B80155DF7C012196ECCFB0E0A0E025
:104A9000EBE4F5E200C2682E762E5A0169010E940D
:104AA00026114C01C1E0D0E00431110550F0C5E001
:104AB000D0E00F3F100729F0C80164E170E0D3D1C6
:104AC000EB01BE01862DDDDE7C0197FF1BC00F3F91
:104AD0001007B9F3C4010E9432110817190788F7AB
:104AE00084E98093BC00C701CDB7DEB7EEE0EFC12B
:104AF000B80189911DDF7C01CC16DD0689F3F7FE34
:104B0000F7CFEECFB801872D13DF7C01E501CA0C8A
:104B1000DB1CF2CF8EE14A9B02C08150E1F74A9B39
:104B2000FECF08955A9880E28A95F1F75A9A08952F
:104B3000FC013BE03A95F1F798E020E080E031E0BD
:104B400040E14A95F1F7880F4A9B02C08160232714
:104B500042E04A95F1F7000040E14A95F1F79150A3
:104B600079F790E19A95F1F799B132E03A95F1F73A
:104B7000000040E14A95F1F792FB992790F99227BE
:104B80002081920F90830895A1E0B0E0E9ECF5E276
:104B90008AC119828C017C01E60EF11C0E151F05DD
:104BA00039F481E09981911180E02196E6E097C186
:104BB000B1DFCE010196BCDFF80181938F01EECF0A
:104BC000529A5A9A089552985A9AEA9AE9E6F0E067
:104BD00080818F7C808308956150770B91E001C0C4
:104BE000990F6A95EAF720E031E0911108C022237D
:104BF00091F05A9A80E28A95F1F75A980895492FD0
:104C0000482339F05A9A232740E24A95F1F79695BE
:104C1000ECCF5A98F9CF5A98EDCFFF920F931F938C
:104C2000CF93DF93EC018C01060F111DC017D10744
:104C300021F4CDB7DEB7E5E053C1F99073DF68E04A
:104C40008F2DCADFF3CF1F920F920FB60F92112450
:104C50000F931F932F933F934F935F936F937F9384
:104C60008F939F93AF93BF93EF93FF93CF93DF9374
:104C70000F92CDB7DEB719824DDFCE01019658DF16
:104C8000082F069506950695282F22952570902FBA
:104C90009570290F922F937026952695920F98273D
:104CA00097708981982B09F058C0083008F055C0DA
:104CB00080E18A95F1F75A9A529A82E08A95F1F743
:104CC00000C05A9888E0089F80011124D801A050A4
:104CD000BF4F1696ED91FC9117973097A9F0609110
:104CE000890170918A0114962D913C911597260F98
:104CF000371F11968D919C911297680F791F13960B
:104D00004C9113978C910995F801E050FF4F638106
:104D1000662349F02091890130918A01848195812F
:104D2000820F931F7ADFFEDE80E18A95F1F75A98B1
:104D300052985A9A80E18A95F1F7F801E050FF4FB6
:104D40006081662349F02091890130918A01818137
:104D50009281820F931F18DFDDDE0F90DF91CF91DC
:104D6000FF91EF91BF91AF919F918F917F916F9143
:104D70005F914F913F912F911F910F910F900FBE17
:104D80000F901F9018950F931F93CF93DF93EC0113
:104D900008970CF049C0F894529A5A9885E08A9581
:104DA000F1F700009C2F969595708C2F8570980FC9
:104DB000892F83709695969523E0CC0FDD1F2A9559
:104DC000E1F7980F8E01092BADDE00C068E0802F5F
:104DD00003DF80E18A95F1F752985A9A4A9B1DC0E9
:104DE00087E090E04A991BC0FE01E050FF4F6381CD
:104DF0006623F1F02091890130918A0184819581A7
:104E0000820F931FC1DE811113C0529A5A9A78946F
:104E1000DF91CF911F910F91089500C0DFCF0197CF
:104E200029F4529A5A9A789480E0F2CF00C0DACFEF
:104E300071DE80E28A95F1F75A98529A80E18A955C
:104E4000F1F7C050DF4F6881662349F02091890156
:104E500030918A0189819A81820F931FDEDE62DEA2
:104E6000789481E0D5CFAA1BBB1B51E107C0AA1FD4
:104E7000BB1FA617B70710F0A61BB70B881F991FFB
:104E80005A95A9F780959095BC01CD0108952F9270
:104E90003F924F925F926F927F928F929F92AF92CA
:104EA000BF92CF92DF92EF92FF920F931F93CF9317
:104EB000DF93CDB7DEB7CA1BDB0B0FB6F894DEBFAE
:104EC0000FBECDBF09942A88398848885F846E84D4
:104ED0007D848C849B84AA84B984C884DF80EE801E
:104EE000FD800C811B81AA81B981CE0FD11D0FB627
:104EF000F894DEBF0FBECDBFED010895991B79E098
:104F000004C0991F961708F0961B881F7A95C9F759
:104F10008095089597FB072E16F4009406D077FD30
:104F200008D0A1DF07FC05D03EF4909581959F4FF6
:104F30000895709561957F4F0895EE0FFF1F0590BE
:104F4000F491E02D0994FB01DC0102C005900D9263
:104F500041505040D8F70895FB01DC0104C08D9109
:104F60000190801921F441505040C8F7881B990BDB
:104F70000895FB01DC0102C001900D9241505040A8
:104F8000D8F70895F999FECF92BD81BDF89A992777
:104F900080B50895A8E1B0E042E050E020C0262F9F
:104FA000F999FECF92BD81BDF89A019700B402161F
:104FB00039F01FBA20BD0FB6F894FA9AF99A0FBECD
:104FC00008950396272FECDFEADF252FE9DF242F52
:104FD000E7CF0196272FE4DFE2CFDC01CB01FC0114
:104FE000F999FECF06C0F2BDE1BDF89A319600B442
:104FF0000D9241505040B8F70895F894FFCF7312C6
:105000009B123A149B123A14CE12EF123A14EC137C
:10501000F913F116F516D416ED16F916FD1601174B
:105020005C17CE1764172F173317681737176C17CD
:1050300078174317C71747177C174B178017A71701
:105040004F178417AE175417891791173B1770170E
:105050003F17741758178D179D17B617C5172917BF
:105060006017D51790189018C518C5184E196A19E9
:0C507000E918E9186E19F619051A051A5E
:10507C00000000010000000000000005010000001D
:10508C000506000000000000000000010B000000FD
:10509C00000000080C000000000000000000730875
:1050AC00041400000000000001E4069E0C990C940E
:1050BC000C8F0C0021007F220003F5F4000001008E
:1050CC00818283E200E900EA00B500B600B700CDAA
:1050DC00008301CC008A0192019401210223022455
:1050EC00022502260227022A02B300B4006F0070C8
:1050FC00009F01CB019F02A0024B026697C634357C
:10510C00F6F73133323600FF0100010000FFFF00DB
:0E511C0000010001FF00000810181810080024
:00000001FF
